:020000040800F2
:100000000050002011040008E5030008E703000881
:10001000E9030008EB030008ED03000800000000FE
:10002000000000000000000000000000EF030008D6
:10003000F103000800000000F3030008F5030008C6
:10004000590400085904000859040008590400081C
:10005000590400085904000859040008590400080C
:1000600059040008590400085904000859040008FC
:1000700059040008590400085904000859040008EC
:1000800059040008590400085904000859040008DC
:1000900059040008F903000859040008590400082D
:1000A00059040008590400085904000859040008BC
:1000B00059040008590400085904000859040008AC
:1000C000590400085904000859040008590400089C
:1000D000590400085904000859040008590400088C
:1000E0000504000859040008590400080000000035
:1000F0000000000000000000000000000000000000
:0C01000000000000000000005FF808F1A3
:10010C0010B5054C237833B9044B13B10448AFF345
:10011C0000800123237010BD14000020000000009B
:10012C00CC12000808B5034B1BB103490348AFF3CD
:10013C00008008BD0000000018000020CC12000850
:10014C00B0F5005F08B513D108230A490A4A0B61C0
:10015C000023C1E9023340F2031308480B60084B3B
:10016C0000F0D6FABDE808400121064800F0F5BDC4
:10017C0008BD00BF540000200000002070000020CB
:10018C006C0000200008014008B50121044B054A11
:10019C0000F00CFBBDE808400221034800F0DDBD77
:1001AC0030000020380000200008014010B590B04D
:1001BC001422002108A801F07BF81422002101A8C8
:1001CC0001F076F802244FF480330122CDE90D437F
:1001DC00CDE906234FF4E01306A80A920F9300F022
:1001EC00D1FD08B172B6FEE70F23CDE901344FF40F
:1001FC0080630390CDE90430214601A800F098FFFC
:10020C0008B172B6FEE710B010BD000000B58FB09B
:10021C0000F042F9FFF7CAFF102200210DEB02009B
:10022C0001F046F8354B03219A69354842F010022B
:10023C009A619A69002502F010020192019A9A695A
:10024C00012642F020029A619A692E4C02F020029B
:10025C000292029A9A6942F004029A619B69002206
:10026C0003F004030393039B00F072FD4FF4005260
:10027C00254B264804A9CDE90423069500F08EFCF5
:10028C000323CDE9043602231D4804A907930695E0
:10029C0000F084FC29462A46282000F02BFC28205C
:1002AC0000F05AFC12231A492046C4E900134FF4FB
:1002BC008033C4E90255C4E90435A561A58300F077
:1002CC000FF908B172B6FEE70A23CDE9086348F6C8
:1002DC00C00304A9CDE90430CDE90630CDE90A0606
:1002EC000D9020460C9600F076F9204600F0E2F9CD
:1002FC001021204600F0D1FAFEE700BF00100240AA
:10030C000008014070000020000011100010014096
:10031C00006400400E4B82B09A6942F001029A616F
:10032C009A6902F001020092009ADA6942F0805256
:10033C00DA61DB69074A03F080530193019B536830
:10034C0023F0E06343F00073536002B0704700BFCA
:10035C00001002400000014010B5044686B0102287
:10036C00002102A800F0A4FF2268194B9A422DD15B
:10037C0003F5D633DA69174842F00072DA61DA69AC
:10038C0002A902F000720092009A9A6942F00402EB
:10039C009A619B6903F004030193019B4FF4006382
:1003AC00029300F0FBFB4FF480520223CDE90223B1
:1003BC000323084802A9059300F0F0FB0022152046
:1003CC00114600F097FB152000F0C6FB06B010BDDF
:1003DC000064004000080140FEE7FEE7FEE7FEE790
:1003EC00FEE770477047704700F068B8014800F0AE
:1003FC0071BA00BF700000204FF4005000F0B6BC82
:10040C0070470000002103E00B4B5B584350043154
:10041C000A480B4B42189A42F6D30A4A02E00023D0
:10042C0042F8043B084B9A42F9D3FFF7E9FF00F07E
:10043C001BFFFFF7EBFE70471013000800000020B5
:10044C0014000020140000209C000020FEE7000097
:10045C0038B50E4B054618784FF47A73B3FBF0F3AE
:10046C000B4A1068B0FBF3F000F084FB044658B95B
:10047C000F2D09D8024629464FF0FF3000F03AFB09
:10048C002046044B1D6038BD0120FCE70C00002009
:10049C000800002010000020074A08B5136803204C
:1004AC0043F01003136000F013FB0020FFF7D0FFA4
:1004BC00FFF730FF002008BD00200240034A044B28
:1004CC0011681B780B441360704700BF9800002024
:1004DC000C000020014B1868704700BF98000020EA
:1004EC0038B5044600286ED090F820300BB9FFF7D1
:1004FC0033FF2268136843F001031360FFF7EAFF30
:10050C00054623685A68D10751D51A6822F00202B1
:10051C001A60FFF7DFFF054623685A68920754D428
:10052C00227E0020012A1A680CBF42F0800222F0C1
:10053C0080021A60627E012A1A680CBF42F04002E7
:10054C0022F040021A60A27E012A1A680CBF42F007
:10055C00200222F020021A60E27E012A1A680CBFE7
:10056C0022F0100242F010021A60227F012A1A684F
:10057C000CBF42F0080222F008021A60627F012AC6
:10058C001A680CBF42F0040222F004021A60D4E98B
:10059C0002210A4321690A4361690A4361680139EE
:1005AC000A43DA610123606284F8203038BDFFF71A
:1005BC0091FF401B0A28A4D9636A43F40033636299
:1005CC00052384F820300120F0E7FFF783FF401B60
:1005DC000A28A1D9F0E770B590F82030013B012B27
:1005EC0062D801240368D3F8002242F00102C3F858
:1005FC0000224A69D3F81C5202F01F0004FA00F0E2
:10060C0025EA0005C3F81C52CD69C44385BBD3F859
:10061C000C52CE682540C3F80C528D8803EBC202F5
:10062C0045EA0645C2F840528E680D8845EA0645F3
:10063C00C2F844528A696ABBD3F804222240C3F838
:10064C0004220A6952BBD3F814221440C3F8144292
:10065C000A6A012A02BFD3F81C221043C3F81C02F9
:10066C000020D3F8002222F00102C3F8002270BD52
:10067C00012DDFD1D3F80C520E680543C3F80C5290
:10068C008D8803EBC20245EA0645C2F840528E68DB
:10069C008D89CBE7D3F804220243D0E7D3F8142298
:1006AC000243C3F81422D3E7436A43F48023436222
:1006BC000120DCE770B590F820300446012BDDB248
:1006CC0020D10223026880F82030136823F0010344
:1006DC001360FFF7FFFE064623685B6813F0010307
:1006EC0002D11D4663620BE0FFF7F4FE801B0A2863
:1006FC00F2D9636A43F400336362052384F8203033
:10070C00284670BD436A012543F400234362F7E792
:10071C00F0B590F820500668013D012DB46841D821
:10072C0014F0E05F3AD0C4F30164032C4FF00105E0
:10073C0005D1436A43F400034362012028E0A5403D
:10074C001D60D1E9020704F1180310BB086847EAE1
:10075C0040501B01F050200106EB0413064400200E
:10076C000D69C3F88451097D012902BFD3F88411A6
:10077C0041F48071C3F884115168C6F88C11126869
:10078C00C6F88821D3F8802142F00102C3F88021F9
:10079C00F0BD4D68384340EAC500DAE7436A43F4DC
:1007AC000013C9E7436A43F48023C5E7F0B590F81A
:1007BC002040013C012C6CD8066841B9F468A407B0
:1007CC0007D1436A43F400134362012056E03469B5
:1007DC00F5E706EB0115D5F8B0710C0107F004072D
:1007EC009760002F4BD1D5F8B0717F0D1760D5F8FD
:1007FC00B071264407F00207D760D5F8B47107F042
:10080C000F071761D5F8B471D5F8B451C7F30727A2
:10081C002D0C97615561D6F8B8211A7002682244E4
:10082C00D2F8B821120A5A7002682244D2F8B821C0
:10083C00120C9A7002682244D2F8B821120EDA70A7
:10084C0002682244D2F8BC211A7102682244D2F800
:10085C00BC21120A5A7102682244D2F8BC21120C33
:10086C009A7102682244D2F8BC21120EDA71036824
:10087C0051B9DA6842F02002DA600020F0BDD5F8F8
:10088C00B071FF085760B2E71A6942F020021A6192
:10089C00F3E7436A43F4802396E790F82030013B5A
:1008AC00012B05D802680020536919435161704728
:1008BC00436A43F4802343620120704770477047BA
:1008CC007047704770477047704770477047704764
:1008DC00704770472DE9F84F036805465E69D3F8F9
:1008EC00049016F001049F68D3F80CB0D3F810A054
:1008FC00D3F8188022D017F0010407D00122B907D1
:10090C009A6040F1A580FFF7D9FF0024FB0509D5BB
:10091C004FF480722B68B8059A6040F1A780284686
:10092C00FFF7CDFFFB0309D54FF480322B68B803DA
:10093C009A6040F1A9802846FFF7C2FF330707D51C
:10094C001BF0100F1FBF10222B6844F40074DA60E8
:10095C00770708D51BF0080F05D008222B6828460E
:10096C00DA60FFF7B2FFB00706D52B68DB68990792
:10097C0002D02846FFF7A8FF720607D51AF0100F11
:10098C001FBF10222B6844F480641A61B30608D58B
:10099C001AF0080F05D008222B6828461A61FFF7B9
:1009AC0095FFF70606D52B681B69980702D02846D9
:1009BC00FFF7EAFBB10308D519F0100F05D0102290
:1009CC002B6828465A60FFF782FFF20308D519F00E
:1009DC00080F05D008222B6828465A60FFF778FFCD
:1009EC0033042CD519F0040F2A6826D0F70504D54A
:1009FC0018F0010F18BF44F00104B00504D518F02D
:100A0C00020F18BF44F00204710504D518F0040F4E
:100A1C0018BF44F0040433050FD518F070030CD044
:100A2C00402B4FD03ED8202B46D0302B47D0102B0C
:100A3C003FD0936923F070039361042353602CB16E
:100A4C006B6A28461C436C62FFF743FFBDE8F88FC6
:100A5C007A0705D417F0080405D1FFF732FF55E7E4
:100A6C004FF4006452E74FF480544FE7790502D5F8
:100A7C0044F4005456E73A0502D544F4804451E757
:100A8C002846FFF71FFF4DE7790302D544F40044D5
:100A9C0054E73A0302D544F480344FE72846FFF775
:100AAC0012FF4BE7502B10D0602BC2D144F4807452
:100ABC00BFE744F00804BCE744F01004B9E744F085
:100ACC002004B6E744F04004B3E744F08004B0E7F8
:100ADC0007490302CA6803F4E06322F4E0621204DB
:100AEC00120C134343F0BF6343F40033CB607047E5
:100AFC0000ED00E0164B30B5DC68C4F30224C4F101
:100B0C000703251D042B28BF0423062D4FF0FF35AA
:100B1C0098BF002405FA03F388BF033C21EA0303C2
:100B2C00A34005FA04F422EA0402002843EA020373
:100B3C00ACBF00F16040074A4FEA0313DBB2ABBF16
:100B4C0000F5614000F00F0080F80033135430BD05
:100B5C0000ED00E014ED00E0002808DB0123420961
:100B6C0000F01F0003FA00F0014B43F8220070471D
:100B7C0000E100E00138B0F1807F0BD24FF0E023B0
:100B8C00F021054A586182F8231000200722986151
:100B9C001A6170470120704700ED00E02DE9F74F16
:100BAC0000221646644F654BDFF894C1DFF894E1E0
:100BBC000D6835FA06F402D103B0BDE8F08F4FF0A2
:100BCC00010808FA06F805EA080438EA05057BD19D
:100BDC004D68032D07D8013D022D00F28880DFE817
:100BEC0005F0969BA100122D00F099806ED8112D66
:100BFC0000F08F80FF2C98BF82464FF00F0988BF02
:100C0C0000F1040A4FEA8605DAF8008088BF203D1F
:100C1C0009FA05FB28EA0B0802FA05F548EA05056E
:100C2C00CAF80050D1F804A01AF0805F4CD0BD690E
:100C3C0026F0030845F00105BD61BD6908F1804847
:100C4C0005F00105019508F5803806F0030B019DB0
:100C5C004FEA8B0BD8F8085009FA0BF925EA090969
:100C6C00394DA84262D005F58065A84260D005F5E3
:100C7C008065A8425ED005F58065A8420CBF0325AF
:100C8C00042505FA0BF545EA0905C8F808501D6856
:100C9C001AF4803F14BF2543A5431D605D681AF408
:100CAC00003F14BF2543A5435D609D681AF4801F67
:100CBC0014BF2543A5439D60DD681AF4001F14BFC3
:100CCC002C4325EA0404DC60013671E7DFF87C90E4
:100CDC004D450CD017D8A9F580194D4507D009F50D
:100CEC0070294D4503D0A9F580194D4582D18A68EC
:100CFC00D2B1012A08BFC0F810804FF0080218BF0B
:100D0C00C0F8148076E76545F1D07545EEE7CA6802
:100D1C0070E7CA6804326DE7CA6808326AE7CA68C5
:100D2C000C3267E7002265E7042263E70025A8E799
:100D3C000125A6E70225A4E70010024000040140AB
:100D4C000000311000003210000801400000221099
:100D5C000AB1016170470904FBE7C36801EA0302A9
:100D6C0021EA030141EA024101617047044A08B5D6
:100D7C005169014202D05061FFF7E2F908BD00BF92
:100D8C00000401402DE9F341054638B30368DB0745
:100D9C0010D42B689F075ED42B68190700F195803F
:100DAC002B685A0700F1C180E869002840F02C81BB
:100DBC00002029E0904C636803F00C03042B07D04F
:100DCC00636803F00C03082B0AD16368DE0307D5B4
:100DDC0023689C03DDD56B68002BDAD1012013E06E
:100DEC006B68B3F5803F12D1236843F480332360E2
:100DFC00FFF770FB064623689803CAD4FFF76AFB1B
:100E0C00801B6428F7D9032002B0BDE8F0819BB9A0
:100E1C00236823F480332360236823F48023236026
:100E2C00FFF758FB064623689903B2D5FFF752FB30
:100E3C00801B6428F7D9E6E7B3F5A02F236803D10C
:100E4C0043F480232360CFE723F4803323602368AB
:100E5C0023F48023CBE7684C636813F00C0F07D0A6
:100E6C00636803F00C03082B10D16368DA030DD40C
:100E7C0023689B0702D52B69012BAFD123686A69C4
:100E8C0023F0F80343EAC203236085E72A695B4B2E
:100E9C006AB101221A60FFF71DFB064623689F0703
:100EAC00ECD4FFF717FB801B0228F7D9ABE71A60CD
:100EBC00FFF710FB0646236898077FF56DAFFFF729
:100ECC0009FB801B0228F6D99DE7AA694A4E4B4BB9
:100EDC00E2B10122C3F88024FFF7FCFA0446736ADE
:100EEC009B070DD54FF4FA52454B1B68B3FBF2F33D
:100EFC00019300BF019B5A1E0192002BF9D14FE7C1
:100F0C00FFF7E8FA001B0228E9D97CE7C3F8802434
:100F1C00FFF7E0FA0446736A9F077FF541AFFFF7CE
:100F2C00D9FA001B0228F6D96DE7334CE369D800D7
:100F3C0024D40127E36943F08053E361E36903F0B0
:100F4C0080530093009B2F4E3368D90518D5EB685E
:100F5C00012B26D1236A43F001032362FFF7BAFA6F
:100F6C0041F288380646236A9B073FD5002F3FF491
:100F7C001BAFE36923F08053E36115E70027E2E739
:100F8C00336843F480733360FFF7A4FA8046336808
:100F9C00DA05DCD4FFF79EFAA0EB08006428F6D93A
:100FAC0031E7ABB9236A41F2883823F0010323629D
:100FBC00236A23F004032362FFF78CFA0646236AA4
:100FCC009807D3D5FFF786FA801B4045F7D91AE767
:100FDC00052B236A03D143F004032362BAE723F001
:100FEC0001032362236A23F00403B6E7FFF772FAC6
:100FFC00801B4045B7D906E7001002400000424272
:10100C0008000020007000402A4C636803F00C03B9
:10101C00082B3ED00022284B02281A662CD1FFF751
:10102C0059FA06462368990120D42B6AB3F5803F00
:10103C0005D16268A96822F400320A436260696AC9
:10104C0062680B4322F474121343012263601A4B3F
:10105C001A66FFF73FFA054623689A013FF5A8AEDA
:10106C00FFF738FA401B0228F6D9CCE6FFF732FA24
:10107C00801B0228D6D9C6E6FFF72CFA0546236852
:10108C009B017FF595AEFFF725FA401B0228F6D998
:10109C00B9E601283FF4B8AE63682A6A03F48031DC
:1010AC0091427FF49BAE6A6A03F4701393423FF44F
:1010BC007FAE93E6001002400000424230B5184B60
:1010CC0087B002AC03F11005224618685968083342
:1010DC0003C2AB421446F7D140F201231149ADF8DB
:1010EC0004304B6803F00C02082A17D1C3F3834277
:1010FC0018326A44DB0312F8100C0CD54B680A4A00
:10110C00C3F34043504318336B4413F8143CB0FB07
:10111C00F3F007B030BD054B5843FAE70248F8E747
:10112C00F41200080010024000127A0000093D0081
:10113C002DE9F0410D46044610B90120BDE8F081BF
:10114C00444A136803F007038B4228D321688E07A7
:10115C0030D4CA0743D43F4A136803F00703AB42A9
:10116C0065D822683C4D12F0040F6CD1130706D5DC
:10117C006B68226923F4605343EAC2036B60FFF788
:10118C009DFF6B68354AC3F30313D35CD840344BD3
:10119C001860344B1868FFF75BF90020CEE7136832
:1011AC0023F007030B431360136803F007038B4210
:1011BC00C3D1CBE7284B11F0040F1EBF5A6842F481
:1011CC00E0625A60080742BF5A6842F460525A60A3
:1011DC005A68A06822F0F00202435A60B9E76268CC
:1011EC001D4E012A33681AD113F4003FA5D0736841
:1011FC0041F2883823F0030313437360FFF76AF955
:10120C0007467368626803F00C03B3EB820FA2D03D
:10121C00FFF760F9C01B4045F3D903208EE7022A83
:10122C0002D113F0007FE1E713F0020FDEE7136841
:10123C0023F007032B431360136803F00703AB423F
:10124C007FF47BAF8DE76B68E16823F4E0630B43BD
:10125C006B608BE70020024000100240E412000893
:10126C00080000201000002070B500260C4D0D4C1D
:10127C00641BA410A64209D100F022F800260A4DE6
:10128C000A4C641BA410A64205D170BD55F8043B52
:10129C0098470136EEE755F8043B98470136F2E7DC
:1012AC000813000808130008081300080C130008A2
:1012BC0003460244934200D1704703F8011BF9E73F
:1012CC00F8B500BFF8BC08BC9E467047F8B500BF27
:0812DC00F8BC08BC9E467047F7
:1012E40000000000000000000102030406070809D2
:1012F40002030405060708090A0B0C0D0E0F101053
:0413040000000000E5
:0413080031010008A7
:04130C000D010008C7
:1013100003020508050607080024F4000100000088
:0413200010000000B9
:0400000508000411DA
:00000001FF
